:10000000004000200000000080B588B00020019072
:10001000FFE701980F280ADCFFE7019A02F1A00030
:1000200002A98854FFE7019801300190F1E7002010
:100030000690079002A8FFF7FEFFFFE7FEE700002B
:1000400081B00090009808B9FFE712E000990869B4
:100050000130086100990120486140F20001C0F2BE
:1000600000010020086040F20001C0F200010860B9
:10007000FFE701B0704700BF80B584B003900291E4
:1000800001920093029803994860019803990860CF
:1000900000980299019A039B083300F003F804B01A
:1000A00080BD00BF85B004900391029201930020AF
:1000B0000090FFE700980F281ADCFFE70498009AE9
:1000C000805C039B0D2102FB013148400299D3174C
:1000D00002EB537323F00703D31AD940484080F052
:1000E000A50001998854FFE7009801300090E1E7EE
:1000F00005B0704780B58AB00890079106920898BD
:1001000030B1FFE7089840680799884203D0FFE7BD
:100110000020099012E0069808990A68496802AB25
:100120000193FFF7BFFF019808990831102200F0F2
:1001300009F8B0FA80F040090990FFE709980AB081
:1001400080BD00BF85B00390029101920020009015
:10015000FFE700980199884210D2FFE70398009AC0
:10016000805C0299895C884203D0FFE701200490FB
:1001700007E0FFE7009801300090EAE700200490D4
:10018000FFE7049805B0704780B583B002900191F5
:100190004CF6CD40C3F64C60009040F20001C0F236
:1001A000000191ED001A029890ED000A30EE410A2C
:1001B0009FED2B2A20EE020A30EE010A81ED000AA3
:1001C00091ED011A029890ED010A30EE410A20EEFD
:1001D000020A30EE010A81ED010A91ED021A02983D
:1001E00090ED020A30EE410A20EE020A30EE010ADA
:1001F00081ED020A91ED031A029890ED030A30EEA8
:10020000410A20EE020A30EE010A81ED030A91ED67
:10021000041A029890ED040A30EE410A20EE020A18
:1002200030EE010A81ED040A91ED051A029890ED75
:10023000050A30EE410A20EE020A30EE010A81ED95
:10024000050A0298806988610198B1E80C10A0E85D
:100250000C1091E80C5080E80C5003B080BD00BF3A
:10026000CDCC4C3E83B00190019818B9FFE7002037
:10027000029030E0019890ED001A90ED012A90ED87
:10028000020A22EE022A21EE011A31EE021A20EEB3
:10029000000A30EE010A8DED000A9DED000AB0EE75
:1002A000041AB4EE410AF1EE10FA03DDFFE7012073
:1002B000029010E0019890ED050AB7EE081AB4EE2E
:1002C000410AF1EE10FA03DDFFE70220029002E09E
:1002D00000200290FFE7029803B0704740F200014F
:1002E000C0F2000100200860704700BF40F200002B
:1002F000C0F200000068704781B0ADF802008DF8D0
:100300000110BDF8020041F20401884207DBFFE75B
:1003100040F20001C0F200016420087026E0BDF840
:10032000020040F6E441884207DCFFE740F20001AA
:10033000C0F200010020087017E0BDF802004FF283
:10034000F062CFF6FA72642100FB012048F21F51DF
:10035000C5F2EB1150FB01F1080A00EBD17040F23D
:100360000001C0F200010870FFE7FFE701B070472D
:1003700040F20000C0F200000078704740F2000137
:10038000C0F2000101200860704700BF81B08DF805
:10039000030001B0704700BF84B002900191019842
:1003A000072804D8FFE74FF0FF30039025E00298BC
:1003B000017800204429009016D1FFE70298417887
:1003C0000020462900900FD1FFE702988178002095
:1003D0005529009008D1FFE70298C0783138B0FA6B
:1003E00080F040090090FFE70098C00700286FF0F8
:1003F000010018BF00200390FFE7039804B0704786
:1004000085B00490039140F20000C0F20000029019
:1004100000200190049818B1FFE7039808B9FFE79E
:1004200024E0FFE702980199415C0020009051B15F
:10043000FFE701980130039988424FF0000038BF70
:1004400001200090FFE70098C00750B1FFE7029835
:10045000019A805C04998854FFE70198013001906B
:10046000E0E70499019A00208854FFE705B070473F
:1004700080B582B001900091019848B1FFE70098E3
:1004800030B1FFE701980099102200F003F8FFE770
:1004900002B080BD84B003900291019200200090D0
:1004A000FFE70098019988420AD2FFE70298009A74
:1004B000805C03998854FFE7009801300090F0E7D2
:1004C00004B0704785B0039002910192039801280F
:1004D0000FD1FFE740F20000C0F20000006840B911
:1004E000FFE740F20001C0F2000101200860049023
:1004F0005FE00398022829D1FFE740F20000C0F234
:1005000000000068012821D1FFE70298F0B1FFE761
:100510000198D8B1FFE700200090FFE700980F286E
:100520000CDCFFE70298009A805C80F05A00019989
:100530008854FFE7009801300090EFE740F2000197
:10054000C0F2000102200860049032E00398032802
:1005500010D1FFE740F20000C0F20000006802285E
:1005600008D1FFE740F20001C0F20001032008605B
:1005700004901EE00398042810D1FFE740F2000029
:10058000C0F200000068032808D1FFE740F2000134
:10059000C0F200010420086004900AE040F200006C
:1005A000C0F200000068042818BF4FF0FF3004902C
:1005B000FFE7049805B0704740F20000C0F2000069
:1005C00000680438B0FA80F04009704785B00490A4
:1005D000039140F20000C0F2000002900020019060
:1005E000049818B1FFE7039808B9FFE724E0FFE794
:1005F00002980199415C0020009051B1FFE70198F9
:100600000130039988424FF0000038BF012000906C
:10061000FFE70098C00750B1FFE70298019A805C9D
:1006200004998854FFE7019801300190E0E70499AC
:10063000019A00208854FFE705B0704780B592B05A
:1006400000200C90FFE70C980F2809DCFFE70C9ABC
:100650000DA901208854FFE70C9801300C90F2E7B7
:1006600006A801900121029102220DAB0393FFF72E
:10067000FEFF01980299039AFFF7FEFF20B9FFE7FA
:100680004FF0FF30119011E04FF08070059044F270
:100690004460C3F25510049004A80821FFF7FEFF40
:1006A000002818BF6FF001001190FFE7119812B0F9
:1006B00080BD000072696E675F66775F6465760073
:0606C00074656C656D001D
:00000001FF
