:10000000004000200000000086B00020694600BFCC
:1000100040F0A0020A5401301028F9D10020CDE9A7
:1000200004006846FFF7FEFFFEE7000020B101690B
:100030000131016101214161704710B541600260E9
:1000400000F1080C002000BF00F0070413F800E0E6
:1000500022FA04F44C4084EA0E0484F0A5040CF85F
:1000600000400130102801F10D01EDD110BD50B359
:1000700043688B4227D1B0B584B0D0F800E00023AC
:10008000EC4600BF03F00705D45C2EFA05F54D40A1
:100090006C4084F0A5040CF803400133102B01F1EF
:1000A0000D01EFD1083000211CF80120435C9A4279
:1000B00003D10F2901F10101F6D1D01AB0FA80F075
:1000C000400904B0B0BD0020704700BF80B540F2C9
:1000D000000CC0F2000C9CED000A90ED004ADFED30
:1000E000280A34EE404A9CED011A90ED015A24EEA4
:1000F000204A34EE000A8CED000A35EE410A9CEDF0
:10010000022A90ED026A20EE200A30EE010A8CED00
:10011000010A36EE420A9CED033A90ED037A20EE96
:10012000200A30EE020A8CED020A37EE430A20EE76
:10013000200A9CED041A90ED042A30EE030A8CED9F
:10014000030A32EE410A20EE200A30EE010A9CED4D
:10015000051A90ED052A8CED040A32EE410A20EED4
:10016000200A806930EE010A8CED050ACCF81800EF
:10017000BCE80D000DC19CE80D4081E80D4080BD3C
:10018000CDCC4C3E20B390ED000A90ED011A90EDDD
:10019000022A21EE011A20EE000A30EE010A22EEB8
:1001A000021A31EE000AB0EE041AB4EE410AF1EE82
:1001B00010FAC4BF0120704790ED050AB7EE081A87
:1001C000B4EE410A0020F1EE10FAC8BF02207047D9
:1001D0000020704770470020704741F203018842B9
:1001E00001D9642013E040F6E541884201D20020A5
:1001F0000DE04FF2F061CFF6FA71642200FB0210BD
:1002000048F21F51C5F2EB11A0FB0101080A40F2B0
:100210000001C0F200010870704740F20000C0F217
:100220000000007870477047704708293CBF4FF0C6
:10023000FF307047017844290BD14178462908D115
:100240008178552905D1C078313818BF6FF0010089
:1002500070476FF001007047E8B1E1B14FF0000C5A
:1002600002294FF0000314D380B502390A2928BFB0
:100270000A2140F2000E013172220023C0F2000E6A
:10028000C2540EEB0302527801339942F8D1BDE813
:10029000804000F803C0704738B131B1002200BF80
:1002A0008B5C83540132102AFAD1704740F2000C63
:1002B000C0F2000C0346DCF80000012B01BF00284F
:1002C0000120CCF8000070478AB181B1022B0ED119
:1002D00001280CD1002000BF0B5C83F05A0313549B
:1002E00001301028F8D10220CCF800007047032B11
:1002F00001BF02280320CCF800007047042B01BF87
:1003000003280420CCF800007047042818BF4FF0E1
:10031000FF30704740F20000C0F20000006804386F
:10032000B0FA80F040097047E8B1E1B14FF0000C3D
:1003300002294FF0000314D380B50239042928BFE5
:10034000042140F2000E013174220023C0F2000E9D
:10035000C2540EEB0302527801339942F8D1BDE842
:10036000804000F803C0704710B58AB0002106A88D
:10037000012200BF425401311029FBD101214FF06D
:10038000020C0023EE460191CDF800C003F00704F3
:10039000C25C2CFA04F44C4062400D3182F0A5029C
:1003A0000EEB0304D12903F101032272EED168465A
:1003B00006AA0121FFF7FEFF01380AB010BD0000B8
:1003C00072696E675F66775F6465760074656C65F9
:0203D0006D00BE
:00000001FF
